:040000000CEF00F011
:10000800FACF03F0FBCF04F0E9CF05F0F2ED15F0DD
:1000180043EF17F043AE20D02D0E0001D96F4350A7
:100028007F0B0008800F01013D6F3DC117F0186A72
:10003800000E1A6E0A0E196ECDEC14F01750300F20
:100048000001DA6F3DC13BF03C6A000E3E6E0A0EBD
:100058003D6E02EC17F01BD02B0E0001D96F43C088
:1000680017F044C018F0000E1A6E0A0E196ECDEC87
:1000780014F01750300F0001DA6F43C03BF044C052
:100088003CF0000E3E6E0A0E3D6E02EC17F03B503F
:10009800300F0001DB6F00D046AE33D02D0E0001CB
:1000A800DD6F7F0E45140001FD6F000E4614000140
:1000B800FE6F0001FD1FFE1FFD4BFE2B800E000191
:1000C800FD2501013B6F000E0001FE2101013C6F7F
:1000D8003BC117F03CC118F0000E1A6E0A0E196EDB
:1000E800CDEC14F01750300F0001DE6F3BC13BF030
:1000F8003CC13CF0000E3E6E0A0E3D6E02EC17F05D
:100108001BD02B0E0001DD6F45C017F046C018F05C
:10011800000E1A6E0A0E196ECDEC14F01750300F3F
:100128000001DE6F45C03BF046C03CF0000E3E6E5D
:100138000A0E3D6E02EC17F03B50300F0001DF6FE6
:1001480000D05F380F0B300F0001AF6F5F500F0BFF
:10015800300F0001B06F60380F0B300F0001B26F25
:1001680060500F0B300F0001B36F63380F0B300F67
:100178000001B56F63500F0B300F0001B66F613887
:100188000F0B300F00018B6F61500F0B300F000108
:100198008C6F5B380F0B300F00018E6F5B500F0BAD
:1001A800300F00018F6F6E380F0B300F0001916F09
:1001B8006E500F0B300F0001926F56380F0B300F37
:1001C8000001826F56500F0B300F0001836F5738B4
:1001D8000F0B300F0001856F57500F0B300F0001C8
:1001E800866F58380F0B300F0001886F58500F0B6F
:1001F800300F0001896F41044210D8A40BD0CD0EF6
:10020800116E000E126EEA0E136EFF0E146EF4ECF1
:100218001BF00BD0CD0E116E000E126EEE0E136E8B
:10022800FF0E146EF4EC1BF000D06FC017F0186AC4
:10023800000E1A6E640E196ECDEC14F01750300FC4
:100248000001BE6F000E1A6E0A0E196E6FC017F00D
:10025800186ACDEC14F017C03BF018C03CF0000E43
:100268003E6E0A0E3D6E02EC17F03B50300F000157
:10027800BF6F6FC03BF03C6A000E3E6E0A0E3D6ECB
:1002880002EC17F03B50300F0001C06F4E04D8A4A9
:100298000BD0D50E116E000E126EEA0E136EFF0E05
:1002A800146EF4EC1BF00BD0D50E116E000E126E0E
:1002B800EE0E136EFF0E146EF4EC1BF000D080B837
:1002C80002D0310E01D0300E0001E16F00D05DC0C8
:1002D80017F0186A000E1A6E640E196ECDEC14F041
:1002E8001750300F0001D16F000E1A6E0A0E196EEA
:1002F8005DC017F0186ACDEC14F017C03BF018C0B9
:100308003CF0000E3E6E0A0E3D6E02EC17F03B50BC
:10031800300F0001D26F5DC03BF03C6A000E3E6EAC
:100328000A0E3D6E02EC17F03B50300F0001D36F00
:10033800E7C02CF0E8C02DF0E9C02EF03CEC10F03E
:100348002C50300F0001B86F000E206E200E216E69
:10035800410E226EE7C01DF0E8C01EF0E9C01FF094
:10036800CEEC0EF01DC02CF01EC02DF01FC02EF0DC
:100378003CEC10F02CC03BF02DC03CF0000E3E6E63
:100388000A0E3D6E02EC17F03B50300F0001BA6FB9
:10039800000E206EC80E216E420E226EE7C01DF0C0
:1003A800E8C01EF0E9C01FF0CEEC0EF01DC02CF026
:1003B8001EC02DF01FC02EF03CEC10F02CC03BF0FE
:1003C8002DC03CF0000E3E6E0A0E3D6E02EC17F09A
:1003D8003B50300F0001BB6F49C017F04AC018F0FE
:1003E800030E1A6EE80E196ECDEC14F01750300F8C
:1003F8000001C36F000E1A6E640E196E49C017F023
:100408004AC018F0CDEC14F017C03BF018C03CF00F
:10041800000E3E6E0A0E3D6E02EC17F03B50300F98
:100428000001C46F000E1A6E0A0E196E49C017F04B
:100438004AC018F0CDEC14F017C03BF018C03CF0DF
:10044800000E3E6E0A0E3D6E02EC17F03B50300F68
:100458000001C56F49C03BF04AC03CF0000E3E6E3B
:100468000A0E3D6E02EC17F03B50300F0001C66FCC
:10047800170E396ED90E3A6E000E3B6EFF0E3D6EAA
:10048800E00E3C6E000E3F6E000E3E6E020E406E99
:10049800010E2BEC0CF0170E396EDD0E3A6E000EC5
:1004A8003B6EFF0E3D6EE00E3C6E000E3F6E000E82
:1004B8003E6E020E406E460E2BEC0CF0340E396E7A
:1004C800AF0E3A6E000E3B6E070E3D6E3C68000E96
:1004D8003F6E000E3E6E020E406E0F0E2BEC0CF0BF
:1004E800520E396E8B0E3A6E000E3B6E070E3D6E45
:1004F800E00E3C6E000E3F6E000E3E6E020E406E29
:100508000F0E2BEC0CF06E0E396E820E3A6E000E4A
:100518003B6E070E3D6E3C68000E3F6E000E3E6E51
:10052800010E406E0A0E2BEC0CF06E0E396ECD0EDD
:100538003A6E000E3B6E070E3D6E3C68000E3F6E35
:10054800000E3E6E010E406E5F0E2BEC0CF0820E1C
:10055800396EBE0E3A6E000E3B6EF80E3D6E000E02
:100568003C6E000E3F6E000E3E6E010E406E230E76
:100578002BEC0CF0820E396ED50E3A6E000E3B6EE7
:10058800F80E3D6E000E3C6E000E3F6E000E3E6E85
:10059800010E406E5F0E2BEC0CF0960E396ED10EEC
:1005A8003A6E000E3B6E070E3D6EE00E3C6E000E7E
:1005B8003F6E000E3E6E010E406E0A0E2BEC0CF0E4
:1005C800960E396EE10E3A6E000E3B6E070E3D6ECA
:1005D800E00E3C6E000E3F6E000E3E6E010E406E49
:1005E800230E2BEC0CF0960E396EB80E3A6E000EF8
:1005F8003B6E070E3D6EE00E3C6E000E3F6E000E29
:100608003E6E010E406E320E2BEC0CF0960E396EDB
:10061800C30E3A6E000E3B6E070E3D6EE00E3C6E4A
:10062800000E3F6E000E3E6E010E406E5D0E2BEC0E
:100638000CF01200C6EC1DF068EC1CF0000E256EE4
:10064800000E246E16EC1DF04BC011F04CC012F0D9
:10065800D60E136EFE0E146EF4EC1BF0010E396EFE
:100668004BC03AF04CC03BF0FF0E3D6E3C68000EAC
:100678003F6E000E3E6E010E406E010E2BEC0CF02C
:100688004BC011F04CC012F06F0E136EFF0E146EBB
:10069800F4EC1BF00B0E396E4BC03AF04CC03BF03B
:1006A800F80E3D6E1F0E3C6E000E3F6E000E3E6E45
:1006B800010E406E180E2BEC0CF0000E1D6E280E6D
:1006C8001C6E000E1F6E170E1E6E000E216E020E9F
:1006D800206EFF0E236EE00E226E2EEC09F04BC04A
:1006E80011F04CC012F0F60E136EFF0E146EF4ECFF
:1006F8001BF0170E396E4BC03AF04CC03BF0FF0EA2
:100708003D6EE00E3C6E000E3F6E000E3E6E020E19
:10071800406E2D0E2BEC0CF04BC011F04CC012F0BB
:10072800F00E136EFF0E146EF4EC1BF0000E1D6E2F
:100738006E0E1C6E000E1F6E170E1E6E000E216EC2
:10074800020E206EFF0E236EE00E226E2EEC09F0D4
:10075800170E396E4BC03AF04CC03BF0FF0E3D6EA1
:10076800E00E3C6E000E3F6E000E3E6E020E406EB6
:10077800730E2BEC0CF04BC011F04CC012F0B10E04
:10078800136EFF0E146EF4EC1BF0280E396E4BC07E
:100798003AF04CC03BF0000E3D6E1F0E3C6E000E52
:1007A8003F6E000E3E6E010E406E320E2BEC0CF0CA
:1007B8004BC011F04CC012F0E00E136EFF0E146E19
:1007C800F4EC1BF0470E396E4BC03AF04CC03BF0CE
:1007D800F80E3D6E000E3C6E000E3F6E000E3E6E33
:1007E800010E406E320E2BEC0CF04BC011F04CC0D9
:1007F80012F0AB0E136EFF0E146EF4EC1BF0640EC9
:10080800396E4BC03AF04CC03BF0FF0E3D6EE00E27
:100818003C6E000E3F6E000E3E6E010E406E040EE2
:100828002BEC0CF04BC011F04CC012F0C00E136E44
:10083800FF0E146EF4EC1BF0640E396E4BC03AF0E8
:100848004CC03BF0FF0E3D6EE00E3C6E000E3F6E5E
:10085800000E3E6E010E406E4D0E2BEC0CF04BC0A0
:1008680011F04CC012F07C0E136EFF0E146EF4ECF7
:100878001BF0780E396E4BC03AF04CC03BF0000EBE
:100888003D6E1F0E3C6E000E3F6E000E3E6E010E5A
:10089800406E060E2BEC0CF04BC011F04CC012F061
:1008A800D90E136EFF0E146EF4EC1BF0780E396E31
:1008B8004BC03AF04CC03BF0000E3D6E1F0E3C6E34
:1008C800000E3F6E000E3E6E010E406E550E2BEC74
:1008D8000CF04BC011F04CC012F0F90E136EFF0E65
:1008E800146EF4EC1BF08C0E396E4BC03AF04CC011
:1008F8003BF0FF0E3D6E3C68000E3F6E000E3E6EF4
:10090800010E406E0C0E2BEC0CF04BC011F04CC0DD
:1009180012F0FC0E136EFF0E146EF4EC1BF08C0E2E
:10092800396E4BC03AF04CC03BF0FF0E3D6E3C6850
:10093800000E3F6E000E3E6E010E406E210E2BEC37
:100948000CF04BC011F04CC012F0E50E136EFF0E08
:10095800146EF4EC1BF08C0E396E4BC03AF04CC0A0
:100968003BF0FF0E3D6E3C68000E3F6E000E3E6E83
:10097800010E406E320E2BEC0CF04BC011F04CC047
:1009880012F0F20E136EFF0E146EF4EC1BF08C0EC8
:10099800396E4BC03AF04CC03BF0FF0E3D6E3C68E0
:1009A800000E3F6E000E3E6E010E406E5F0E2BEC89
:1009B8000CF012001F0E306E000E316E99D1250E0C
:1009C8003818D8B404D038503AEC1EF091D1000E43
:1009D800376E000E366E000E356E05D035841D4A12
:1009E8001E2A01D00BD01DC0F6FF1EC0F7FF08005D
:1009F800F550300AD8B4F2D701D0F5D71DC0F6FFAC
:100A08001EC0F7FF0800F550B7EC1CF0D8A03BD08B
:100A1800000E376E000E366E00D036C011F037C0AB
:100A280012F0000E146E0A0E136E7DEC1CF011C04D
:100A380036F012C037F0D00E2B6EFF0E2C6E1DC094
:100A4800F6FF1EC0F7FF0800F5502D6E2E6A2B50DA
:100A58002D262C502E222D5036262E5037221D4A58
:100A68001E2A1DC0F6FF1EC0F7FF0800F550B7ECA0
:100A78001CF0D8A008D0D1D706D048D11BD0358ECD
:100A880019D036D117D01DC0F6FF1EC0F7FF1D4A7A
:100A98001E2A0800F5CF38F03850000AD8B436D1ED
:100AA800640AD8B407D00D0AD8B404D0110AD8B44F
:100AB800E6D71ED135BE15D030C0D9FF31C0DAFF18
:100AC800DECF33F0DDCF34F0020E3026000E3122B7
:100AD80034AE4ED0030E3512336C341ED8B0342ADF
:100AE80047D030C0D9FF31C0DAFFDECF33F0DDCFD9
:100AF80034F0020E3026000E31223AD0010E386E44
:100B0800050E3818D8B43DD001D03BD03850020D6E
:100B1800780EF324F66EFE0EF420F76E0900F550F9
:100B2800335C0900F5503458D8A02BD001D029D017
:100B3800382AE6D726D0010E386E040E3818D8B4F5
:100B480020D001D01ED03850020D820EF324F66E4C
:100B5800FE0EF420F76E0900F550335C0900F550DD
:100B68003458D8A00ED001D00CD0382AE6D709D0F6
:100B78003550800B000AD8B4C1D7800AD8B4DBD767
:100B880000D036503710D8B40AD035C02BF0030E39
:100B98002B16D8B404D03606D8A0370600D0800E5D
:100BA80038BE7F0E2B6E3650385C3750800A2B5873
:100BB800D8B007D03850365E000E38BEFF0E375A10
:100BC80005D0000E376E000E366E00D035A41AD050
:100BD80035C02BF0030E2B16D8B404D02D0E3AECEA
:100BE8001EF000D036503710D8B426D0300E3AEC6C
:100BF8001EF03606D8A0370636503710D8B41CD0A9
:100C0800F5D71AD036503710D8B40CD0200E3AEC9D
:100C18001EF03606D8A0370636503710D8B402D0A2
:100C2800F5D700D035C02BF0030E2B16D8B404D05E
:100C38002D0E3AEC1EF000D038C032F053D045D01B
:100C48003250020D780EF324F66EFE0EF420F76E85
:100C58000900F5CF13F00A00F5CF14F033C011F0F6
:100C680034C012F0ECEC18F011C018F012C019F0F2
:100C7800000E1B6E0A0E1A6E35EC1AF01850300F63
:100C8800386E2CD033C011F034C012F03250020D3F
:100C9800820EF324F66EFE0EF420F76E0900F5CFEF
:100CA80013F00A00F5CF14F0ECEC18F011500F0B0C
:100CB8002F6E2F50010D3E0EF324F66EFF0EF4201A
:100CC800F76E0800F5CF38F009D03550800B000AD0
:100CD800D8B4B6D7800AD8B4D5D700D038503AECB3
:100CE8001EF000D032063228D8B402D0EED700D099
:100CF8001DC0F6FF1EC0F7FF1D4A1E2A0800F5CFCB
:100D080038F03850D8B402D05AD600D012001AECB5
:100D180019F01EEC03F06FEC19F00FEC1AF000015B
:100D2800806900D088EC18F0635000018019D8B4AD
:100D3800A7D063C080F0C9EC1AF01FC049F020C0EA
:100D48004AF024EC18F03BC0E7F03CC0E8F03DC0A6
:100D5800E9F0A3EC1BF014C043F015C044F043AE17
:100D68001DD043C03EF144C03FF101013E1F3F1F6B
:100D78003E4B3F2B800E01013E27000E3F237F0E86
:100D880001013E17000E3F1701013E1F3F1F3E4B5A
:100D98003F2B3EC143F03FC144F000D043C011F0A7
:100DA80044C012F0000E146E090E136E7DEC1CF098
:100DB80011C017F012C018F0000E1A6E050E196E49
:100DC800CDEC14F0200E1724456E000E1820466E48
:100DD8008A0E1D6EFE0E1E6E5FC01FF0206A60C078
:100DE80021F0226A63C023F0246A61C025F0266AD4
:100DF8005BC027F0286A6EC029F02A6ADEEC04F08E
:100E0800010E1D6EFF0E1E6E43C01FF044C020F081
:100E180045C021F046C022F0DEEC04F0A80E1D6E9D
:100E2800FE0E1E6E80A804D001013E6B3E2B02D040
:100E380001013E6B01013E511F6E206A4EC021F038
:100E4800226ADEEC04F02A0E1D6EFF0E1E6E49C0EB
:100E58001FF04AC020F05DC021F0226ADEEC04F0E9
:100E680049C011F04AC012F0EEEC17F0000E7DEC0C
:100E780017F00DEC1CF04CEC0EF00EEC00F000D06E
:100E8800AAEC15F0E806D8A44DD7000E0001F36FC0
:100E9800000EF26F17D02CEC1EF0FEEC11F042D7CA
:100EA8002CEC1EF027EC13F03DD72CEC1EF018ECC0
:100EB80015F038D72CEC1EF0B4EC1DF033D733EC1A
:100EC8001EF030D75E50000AD8B4E5D7010AD8B46E
:100ED800E7D7030AD8B4E9D7070AD8B4EBD7EFD7CE
:100EE80021D70CEF00F02E6E240E306E1E0E2F6EE2
:100EF800C2D02F50440F236E190E246E020E256E99
:100F0800000E276E000E266E3050020DF3500E0FA5
:100F180080EC1AF0440E236E190E246E020E256E14
:100F2800000E276E000E266E3050020DF3500E0F85
:100F380080EC1AF0440E236E190E246E020E256EF4
:100F4800070E276E26680E0E80EC1AF0A8D0440E05
:100F5800236E190E246E020E256E000E276E000EEB
:100F6800266E0E0E80EC1AF0440E236E190E246EB7
:100F7800020E256E070E276E266830500E0F80EC85
:100F88001AF08DD0440E236E190E246E020E256EB3
:100F9800000E276E000E266E30500E0F80EC1AF0F1
:100FA800440E236E190E246E020E256E070E276E50
:100FB80026683050020DF3500E0F80EC1AF06FD0F7
:100FC800440E236E190E246E020E256E000E276E37
:100FD800000E266E3050020DF3500E0F80EC1AF002
:100FE8002F50440F236E190E246E020E256E070E25
:100FF800276E26680E0E80EC1AF051D02F50440F41
:10100800236E190E246E020E256E000E276E000E3A
:10101800266E0E0E80EC1AF02F50440F236E190E18
:10102800246E020E256E070E276E266830500E0FAE
:1010380080EC1AF034D02F50440F236E190E246E12
:10104800020E256E000E276E000E266E30500E0F13
:1010580080EC1AF02F50440F236E190E246E020EE6
:10106800256E070E276E26683050020DF3500E0FBE
:1010780080EC1AF014D02E50000AD8B43AD7010ADE
:10108800D8B465D7030AD8B47DD7010AD8B498D79D
:10109800070AD8B4B3D7010AD8B4CDD700D0120004
:1010A8002E6E240E306E1E0E2F6EBFD0440E236E91
:1010B800190E246E020E256E000E276E000E266E87
:1010C80030500E0F80EC1AF0440E236E190E246E69
:1010D800020E256E070E276E26680E0E80EC1AF09B
:1010E800B8D0440E236E190E246E020E256E000E23
:1010F800276E000E266E3050020DF3500E0F80EC56
:101108001AF0440E236E190E246E020E256E070E79
:10111800276E266830500E0F80EC1AF09AD0440ED5
:10112800236E190E246E020E256E000E276E000E19
:10113800266E0E0E80EC1AF02F50440F236E190EF7
:10114800246E020E256E000E276E000E266E0E0E01
:1011580080EC1AF0440E236E190E246E020E256ED2
:10116800070E276E26683050020DF3500E0F80ECE4
:101178001AF06FD02F50440F236E190E246E020EF2
:10118800256E000E276E000E266E30500E0F80EC76
:101198001AF02F50440F236E190E246E020E256E7E
:1011A800070E276E26680E0E80EC1AF052D02F50CC
:1011B800440F236E190E246E020E256E000E276E44
:1011C800000E266E3050020DF3500E0F80EC1AF010
:1011D8002F50440F236E190E246E020E256E070E33
:1011E800276E266830500E0F80EC1AF032D0440E6D
:1011F800236E190E246E020E256E000E276E000E49
:10120800266E0E0E80EC1AF02F50440F236E190E26
:10121800246E020E256E070E276E26683050020DCA
:10122800F3500E0F80EC1AF014D02E50000AD8B4E8
:101238003DD7010AD8B455D7030AD8B470D7010AE4
:10124800D8B498D7070AD8B4B2D7010AD8B4CFD738
:1012580000D0120020C024F021C025F0241E251E35
:10126800244A252A010E24242A6E000E25202B6EDE
:10127800000E276E010E266E20C024F021C025F036
:10128800D89024362536241E251E244A252A24C013
:1012980028F025C029F0000E2D6E000E2C6E20C0FF
:1012A8002EF021C02FF01E502024186E22C019F0F5
:1012B80023C01AF01C5025EC1CF0205000081E24F6
:1012C800186E22C019F023C01AF01C5025EC1CF02F
:1012D8001EC018F022C019F023C01AF01C50202498
:1012E80025EC1CF01EC018F022C019F023C01AF01B
:1012F800205000081C2425EC1CF078D02BBE0BD005
:101308002E06D8A02F06020E2826000E29222850C5
:101318002A2629502B222C4A2D2A020E2626000E78
:10132800272226502A2627502B221E502E24186E9C
:1013380022C019F023C01AF01C502C2425EC1CF0F4
:101348001E502E24186E22C019F023C01AF02C50FB
:1013580000081C2425EC1CF02E5000081E24186ED2
:1013680022C019F023C01AF01C502C2425EC1CF0C4
:101378002E5000081E24186E22C019F023C01AF03F
:101388002C5000081C2425EC1CF01E502C24186E30
:1013980022C019F023C01AF01C502E2425EC1CF092
:1013A8001E502C24186E22C019F023C01AF02E509B
:1013B80000081C2425EC1CF02C5000081E24186E74
:1013C80022C019F023C01AF01C502E2425EC1CF062
:1013D8002C5000081E24186E22C019F023C01AF0E1
:1013E8002E5000081C2425EC1CF000D02E502C5C3C
:1013F8002D50800A246E2F50800A2458D8A07ED7FA
:10140800120069C017F0186A000E1A6E0A0E196EDB
:10141800CDEC14F01750300F0001A66F69C03BF0F7
:101428003C6A000E3E6E0A0E3D6E02EC17F03B5011
:10143800300F0001A76F6AC017F0186A000E1A6E05
:101448000A0E196ECDEC14F01750300F0001A96F79
:101458006AC03BF03C6A000E3E6E0A0E3D6E02EC1E
:1014680017F03B50300F0001AA6F6CC017F0186AD4
:10147800000E1A6E0A0E196ECDEC14F01750300FCC
:101488000001AC6F6CC03BF03C6A000E3E6E0A0E69
:101498003D6E02EC17F03B50300F0001AD6F6BC092
:1014A80017F0186A000E1A6E0A0E196ECDEC14F0B9
:1014B8001750300F00019D6F6BC03BF03C6A000E67
:1014C8003E6E0A0E3D6E02EC17F03B50300F0001E5
:1014D8009E6F67C017F0186A000E1A6E0A0E196E12
:1014E800CDEC14F01750300F0001A06F67C03BF02F
:1014F8003C6A000E3E6E0A0E3D6E02EC17F03B5041
:10150800300F0001A16F6DC017F0186A000E1A6E37
:101518000A0E196ECDEC14F01750300F0001A36FAE
:101528006DC03BF03C6A000E3E6E0A0E3D6E02EC4A
:1015380017F03B50300F0001A46F340E396EA60E21
:101548003A6E000E3B6E070E3D6E3C68000E3F6E15
:10155800000E3E6E020E406E0F0E2BEC0CF0520E7B
:10156800396E9D0E3A6E000E3B6E070E3D6EE00E14
:101578003C6E000E3F6E000E3E6E020E406E0F0E69
:101588002BEC0CF01200F2925150D8B4A3D0CE50EC
:10159800CFCF01F0026A01C002F0016A0110476E64
:1015A8000250486E000ECF6E000ECE6E93D0000E25
:1015B800CF6E000ECE6E9E90900ECD6ECD80000E3A
:1015C800596E000E0001E36F000EE46F000EE56F28
:1015D800000EE66F010E516E7BD08DD0350E475C44
:1015E800210E4858D8A009D01C0E475C250E485833
:1015F800D8B003D0020E516E2AD07DEC1EF027D051
:1016080026D079D0A10E475C0F0E4858D8A009D033
:10161800880E475C130E4858D8B003D0030E516E9D
:1016280057D07DEC1EF054D053D065D0910E475C56
:10163800010E4858D8A008D0BC0E475C020E485886
:10164800D8B002D0040ED7D77DEC1EF000D0F19CA4
:1016580052D0910E475C010E4858D8A034D0080EDD
:10166800475C070E4858D8B02ED0D8900001E33513
:101678000001E36F0001E4350001E46F0001E53586
:101688000001E56F0001E6350001E66FE90E475CF1
:10169800030E4858D8A008D0010E0001E327000E19
:1016A800E423E523E62300D0592A1F0E5964B6D750
:1016B800000E0001F36F010EF26FF298000E516EEA
:1016C800E4C050F0ABD77DEC1EF0E4C050F000D081
:1016D800F18C11D05150000AD8B469D7010AD8B496
:1016E8007DD7030AD8B48ED7010AD8B49FD7070A82
:1016F800D8B4AFD700D01200366E800E3660A6D0B0
:101708009F0E2E6401D0A2D03450D8A403D0010E6D
:10171800346E00D01F0E2F6404D07E0E2F6403D0C9
:1017280000D03F0E2F6E000E386E040E386401D0C4
:101738008DD0530E2F6015D0E00E2F24116E126A33
:10174800FF0E1222000E146E050E136E7DEC1CF0B7
:1017580038501126000E12229D0E1124F66EFC0E32
:1017680014D0AD0E2F24116E126AFF0E1222000E35
:10177800146E050E136E7DEC1CF038501126000E09
:1017880012229C0E1124F66EFD0E1220F76E080030
:10179800F5CF35F000D0000E376E060E376401D055
:1017A80053D035A023D03404D8A40CD02E503724DD
:1017B800186E30C019F031C01AF03650382425ECB4
:1017C8001CF03ED037503402F3502E24236E34C020
:1017D80024F034C025F030C026F031C027F038504E
:1017E8003402F350362480EC1AF02AD030503218E4
:1017F80004E131503318D8B423D03404D8A40CD021
:101808002E503724186E32C019F033C01AF03650F3
:10181800382425EC1CF014D037503402F3502E2411
:10182800236E34C024F034C025F032C026F033C013
:1018380027F038503402F350362480EC1AF000D0E8
:10184800372AD8903532A9D7382A6FD71200010124
:10185800346F34C13AF139C039F13AC011F03BC0A4
:1018680012F029EC1BF011C035F112C036F1000E50
:101878000101386F000E376F6CD0000181510001F3
:10188800D8B43AD04050050D01013A510001FB6F20
:10189800FC6BF3500001FB27F4500001FC2300010E
:1018A800FCBF2AD00001FC5105E1810E0001FB5D5F
:1018B800D8A022D0000E01013A6F4050070DF35016
:1018C80001013925030F0101396FA00E01013965A6
:1018D80004D0A00E0101396F00D0010137513A241C
:1018E800D96E010138513B20DA6E200EDE18D8B4CB
:1018F8002CD002D02AD000D039C12EF001013751A6
:101908003A24D96E010138513B20DA6EDF502F6E30
:101918003CC030F03DC031F03EC032F03FC033F043
:1019280040C034F001013A5180EC0BF04050060DF4
:10193800F35001013A2501013A6F800E01013A6521
:1019480004D0800E01013A6F00D00101374B382BCB
:1019580000D0010135510101375D01013651010106
:101968003859D8A08AD71200010E24EC1EF0000EB8
:10197800186E960E176E98EC19F0110E24EC1EF0E6
:10198800010E186EF40E176E98EC19F0B10E24ECD7
:101998001EF0010E1CEC1EF02C0E1CEC1EF02D0E81
:1019A8001CEC1EF0B20E24EC1EF0010E1CEC1EF016
:1019B8002C0E1CEC1EF02D0E1CEC1EF0B30E24ECAD
:1019C8001EF0010E1CEC1EF02C0E1CEC1EF02D0E51
:1019D8001CEC1EF0010E1CEC1EF02C0E1CEC1EF074
:1019E8002D0E1CEC1EF0B40E24EC1EF0070E1CECA1
:1019F8001EF0C00E24EC1EF0A20E1CEC1EF0020E0F
:101A08001CEC1EF0840E1CEC1EF0C10E24EC1EF023
:101A1800C50E1CEC1EF0C20E24EC1EF00A0E1CECC7
:101A28001EF0000E1CEC1EF0C30E24EC1EF08A0EF5
:101A38001CEC1EF02A0E1CEC1EF0C40E24EC1EF04A
:101A48008A0E1CEC1EF0EE0E1CEC1EF0C50E24ECEB
:101A58001EF00E0E1CEC1EF0200E24EC1EF0360EAE
:101A680024EC1EF0C80E1CEC1EF03A0E24EC1EF0FE
:101A7800050E1CEC1EF01200000E256E000E246EE2
:101A880016EC1DF04BC011F04CC012F0EC0E136EAA
:101A9800FE0E146EF4EC1BF0010E396E4BC03AF0DA
:101AA8004CC03BF0FF0E3D6E3C68000E3F6E000ED2
:101AB8003E6E010E406E010E2BEC0CF04BC011F087
:101AC8004CC012F0890E136EFF0E146EF4EC1BF06E
:101AD800100E396E4BC03AF04CC03BF0F80E3D6E1C
:101AE8001F0E3C6E000E3F6E000E3E6E020E406EE4
:101AF800040E2BEC0CF04BC011F04CC012F0B10EE0
:101B0800136EFF0E146EF4EC1BF0280E396E4BC0EA
:101B18003AF04CC03BF0000E3D6E1F0E3C6E000EBE
:101B28003F6E000E3E6E010E406E320E2BEC0CF036
:101B3800440E236E190E246E020E256E070E276EB4
:101B480026680E0E80EC1AF04BC011F04CC012F053
:101B5800E00E136EFF0E146EF4EC1BF0470E396E98
:101B68004BC03AF04CC03BF0F80E3D6E000E3C6E98
:101B7800000E3F6E000E3E6E010E406E320E2BECD4
:101B88000CF01200000E256E000E246E16EC1DF0EF
:101B98004BC011F04CC012F0160E136EFF0E146EEF
:101BA800F4EC1BF0010E396E4BC03AF04CC03BF020
:101BB800FF0E3D6E3C68000E3F6E000E3E6E010E3D
:101BC800406E010E2BEC0CF04BC011F04CC012F023
:101BD800C90E136EFF0E146EF4EC1BF00B0E396E6B
:101BE8004BC03AF04CC03BF0F80E3D6E1F0E3C6EF9
:101BF800000E3F6E000E3E6E020E406E060E2BEC7F
:101C08000CF04BC011F04CC012F0D10E136EFF0E49
:101C1800146EF4EC1BF01A0E396E4BC03AF04CC03F
:101C28003BF0F80E3D6E1F0E3C6E000E3F6E000E30
:101C38003E6E020E406E060E2BEC0CF04BC011F0FF
:101C48004CC012F0B10E136EFF0E146EF4EC1BF0C4
:101C5800280E396E4BC03AF04CC03BF0000E3D6E7A
:101C68001F0E3C6E000E3F6E000E3E6E010E406E63
:101C7800320E2BEC0CF0440E236E190E246E020E5D
:101C8800256E070E276E26680E0E80EC1AF01200DD
:101C98004F04D8A405D0000E426E010E416E00D04C
:101CA8000001EC510001ED11D8A40CD04104421000
:101CB800D8A408D046EC19F0000E0001ED6F010E13
:101CC800EC6F67D00001EC050001ED11D8A411D02C
:101CD80041504210D8A40DD06FEC19F0000E00014D
:101CE800ED6F000EEC6F000E7DEC17F06DEC1EF042
:101CF80050D00001EC050001ED11D8A44AD04104F0
:101D08004210D8A446D080B83CD0BDEC1DF0000EDF
:101D18000001EB6F010EEA6F34D0BDEC1DF024EC2E
:101D280018F03BC0E7F03CC0E8F03DC0E9F0000E19
:101D3800116E400E126E400E136EE7C014F0E8C02C
:101D480015F0E9C016F082EC14F0D8B003D03DECE1
:101D58001CF000D0000E3F6E010E3E6E3FBE08D054
:101D68003F500FE1080E3E5CD8B00BD001D009D02F
:101D78003E507DEC17F0F8EC1CF03E4A3F2AEED7B7
:101D880000D00001EA050001EB11D8A402D0C5D7A4
:101D980000D012001FC023F0246A256A1E3423369F
:101DA80001E324802350266E2650D8A402D00ED0FA
:101DB8006CD022C023F0246A256A2134233601E33B
:101DC800248023502B6E2B50D8A407D0000E1D6EF4
:101DD800000E1E6E000E1F6E58D02B507B0F26264D
:101DE8001FC02BF022502B1A800E2B161E8E218E10
:101DF800FF0E2016FF0E2116000E2216000E276E6B
:101E0800000E286E000E296E070E2A6E00D01DA047
:101E180007D020502726215028222250292200D0DE
:101E2800D8901F321E321D32D890203621362236E5
:101E38002A2EEDD700D0090E2A6E00D01DA007D09B
:101E480020502726215028222250292200D0D8901D
:101E58001F321E321D32D8902932283227322A2EBC
:101E6800EDD700D027C011F028C012F029C013F018
:101E780026C014F02BC015F063EC12F011C01DF051
:101E880012C01EF013C01FF000D01200000E256E05
:101E9800000E246E16EC1DF04BC011F04CC012F071
:101EA800D70E136EFE0E146EF4EC1BF0010E396E95
:101EB8004BC03AF04CC03BF0FF0E3D6E3C68000E44
:101EC8003F6E000E3E6E010E406E010E2BEC0CF0C4
:101ED8004BC011F04CC012F0950E136EFF0E146E2D
:101EE800F4EC1BF01A0E396E4BC03AF04CC03BF0C4
:101EF800FF0E3D6EE00E3C6E000E3F6E000E3E6E15
:101F0800020E406E010E2BEC0CF04BC011F04CC0D1
:101F180012F0B60E136EFF0E146EF4EC1BF0290EC1
:101F2800396E4BC03AF04CC03BF0FF0E3D6EE00EF0
:101F38003C6E000E3F6E000E3E6E020E406E010EAD
:101F48002BEC0CF04BC011F04CC012F05F0E136E6E
:101F5800FF0E146EF4EC1BF03C0E396E4BC03AF0D9
:101F68004CC03BF0070E3D6E3C68000E3F6E000E05
:101F78003E6E010E406E0F0E2BEC0CF01200E00EC0
:101F880024EC1EF0020E1CEC1EF01C0E1CEC1EF0C5
:101F9800070E1CEC1EF0120E1CEC1EF0370E1CEC8B
:101FA8001EF0320E1CEC1EF0290E1CEC1EF02D0E3D
:101FB8001CEC1EF0290E1CEC1EF0250E1CEC1EF06D
:101FC8002B0E1CEC1EF0390E1CEC1EF0000E1CEC47
:101FD8001EF0010E1CEC1EF0030E1CEC1EF0100E81
:101FE8001CEC1EF0E10E24EC1EF0030E1CEC1EF09F
:101FF8001D0E1CEC1EF0070E1CEC1EF0060E1CEC51
:102008001EF02E0E1CEC1EF02C0E1CEC1EF0290EE1
:102018001CEC1EF02D0E1CEC1EF02E0E1CEC1EF0FF
:102028002E0E1CEC1EF0370E1CEC1EF03F0E1CECA6
:102038001EF0000E1CEC1EF0000E1CEC1EF0020E32
:102048001CEC1EF0100E1CEC1EF0130E24EC1EF0FF
:10205800000E186E0A0E176E98EC19F0290E24EC73
:102068001EF0000E186E640E176E98EC19F0120030
:102078002EC030F0316A326A2D34303601E33180B7
:1020880030503A6E3A50D8A402D039D063D0170EE7
:10209800306E2CC031F02DC032F02EC033F0302815
:1020A800346E04D0D890333232323132342EFAD7EB
:1020B8003150356E2D8EFF0E2C16FF0E2D16000E8C
:1020C8002E162C50366E2D50376E2E50386E396ABB
:1020D8008E0E3A5E3AAE10D03A50800A8F0FD8B0C2
:1020E80003D00DD037D000D0D890393238323732BB
:1020F80036323A3EF9D719D0170E3A6411D0000E8D
:102108002C6E000E2D6E000E2E6E000E2F6E22D03D
:1021180007D0D89036363736383639363A0600D0B2
:102128003A50D8B402D0F5D700D03550D8B409D039
:10213800391E381E371E366C000E372238223922D7
:1021480000D036C02CF037C02DF038C02EF039C082
:102158002FF000D012002EC032F0336A346A2D34CA
:10216800323601E333803250396E3950D8A402D068
:102178000ED061D031C032F0336A346A303432362E
:1021880001E3338032503A6E3A50D8A407D0000E9B
:102198002C6E000E2D6E000E2E6E4DD0000E366E7B
:1021A800000E376E000E386E3A50890F395E2EC019
:1021B8003AF031503A1A800E3A162D8EFF0E2C1630
:1021C800FF0E2D16000E2E16308EFF0E2F16FF0E48
:1021D8003016000E3116180E356E00D0D8903636EF
:1021E800373638362F502C5C30502D5831502E58F9
:1021F800D8A007D02F502C5E30502D5A31502E5A6F
:102208003680D8902C362D362E36352EE7D700D08E
:1022180036C011F037C012F038C013F039C014F0CE
:102228003AC015F063EC12F011C02CF012C02DF07A
:1022380013C02EF000D01200A00E1D6EFF0E1E6EF1
:1022480064C01FF0206A65C021F0226A66C023F0CE
:10225800246ADEEC04F064C017F0186A000E1A6EE7
:102268000A0E196ECDEC14F01750300F0001946F60
:1022780064C03BF03C6A000E3E6E0A0E3D6E02ECF6
:1022880017F03B50300F0001956F65C017F0186AC2
:10229800000E1A6E0A0E196ECDEC14F01750300F9E
:1022A8000001976F65C03BF03C6A000E3E6E0A0E57
:1022B8003D6E02EC17F03B50300F0001986F66C07E
:1022C80017F0186A000E1A6E0A0E196ECDEC14F08B
:1022D8001750300F00019A6F66C03BF03C6A000E41
:1022E8003E6E0A0E3D6E02EC17F03B50300F0001B7
:1022F8009B6F340E396E940E3A6E000E3B6E070ECD
:102308003D6E3C68000E3F6E000E3E6E020E406E43
:102318000F0E2BEC0CF01200236E800E236069D098
:102328009F0E186401D065D0FF0E1D6EFF0E1E6E45
:10233800195023C01FF0206A1F26000E20221D50AE
:102348001F261E50202220BE0AD0205004E1800EF5
:102358001F5CD8A004D023500008800F196EFF0E10
:102368001D6EFF0E1E6E1A5018C01FF0206A1F2621
:10237800000E20221D501F261E50202220BE0BD0EA
:10238800205004E1A00E1F5CD8A005D0185000080A
:10239800A00F1A6E00D018C014F0235019241D6E17
:1023A8001D04156E18501A241E6E1E04166E235036
:1023B800E8EC19F01C50216E1BC022F0838683982C
:1023C8001AC018F01850D8B413D001D011D019C0C1
:1023D80023F02350D8B40AD001D008D02150A0EC63
:1023E8001DF02250A0EC1DF02306F3D71806EAD7FB
:1023F80083881200000E536E88EC18F0635053EC7B
:102408001CF06C6E605053EC1CF06A6E5F5053EC1D
:102418001CF0696E5B5053EC1CF0676E615053EC16
:102428001CF06B6E6E5053EC1CF06D6E40EC0DF0B2
:1024380005EC0AF0010E0001F96F3CD0AAEC15F08A
:10244800E806D8A437D0020E5E6431D0090E5E606B
:102458002ED02CEC1EF0030E5E18D8A403D031EC5D
:102468001DF000D0040E5E18D8A403D03DEC1DF07A
:1024780000D0050E5E18D8A403D078EC1DF000D06B
:10248800060E5E18D8A403D062EC15F000D0070E33
:102498005E18D8A403D07EEC16F000D0080E5E18A3
:1024A800D8A403D004EC1EF000D05E6803D033EC4F
:1024B8001EF000D00001F905D8B4C0D7120014509E
:1024C800D8B405D0115012101310D8A40ED0000E95
:1024D800116E000E126E000E136E53D006D0142A21
:1024E800D89013321232113200D0000E1114166E29
:1024F800000E1214176EFE0E1314186E16501710D5
:102508001810D8B40ED0EBD70CD0142A010E11260F
:10251800000E1222000E1322D890133212321132FA
:1025280000D0000E1114166E000E1214176EFF0E56
:102538001314186E165017101810D8B408D0E5D711
:1025480006D01406D89011361236133600D012BEB3
:1025580004D0020E1460F5D700D014B002D0129E39
:1025680000D0D8901432145013121550D8B402D099
:10257800138E00D011C011F012C012F013C013F066
:1025880000D012000101376F040ECB6E070ECA6E21
:10259800000E206E800E216E400E226E0101375112
:1025A800A4EC1CF019C01DF01AC01EF01BC01FF0CF
:1025B800CEEC0EF01DC02CF01EC02DF01FC02EF06A
:1025C800000E2F6EA00E306E410E316EAFEC10F083
:1025D8002CC034F12DC035F12EC036F134C12CF0A9
:1025E80035C12DF036C12EF03CEC10F02CC038F17E
:1025F8002DC039F1010137513B6E3C6A0101385158
:102608003B5C3C50800A3D6E01013951800A3D58BF
:10261800D8B004D00101384B392B00D038C13BF079
:10262800030E3B163B38F00B0C09BD6E38C13BF06E
:1026380039C13CF03C343C323B323C343C323B32D6
:102648003B50BE6E1200000E526E010E0001F76F75
:102658000FEC1AF0585053EC1CF0586E575053ECCE
:102668001CF0576E565053EC1CF0566E58C066F06E
:1026780057C065F056C064F0C6EC0DF020EC11F0C0
:102688003CD0AAEC15F0E806D8A437D0020E5E6458
:1026980031D0090E5E602ED02CEC1EF0030E5E18B1
:1026A800D8A403D049EC1DF000D0040E5E18D8A4BD
:1026B80003D055EC1DF000D0050E5E18D8A403D049
:1026C80061EC1DF000D0060E5E18D8A403D0C1EC52
:1026D80019F000D0070E5E18D8A403D05BEC1AF0EE
:1026E80000D0080E5E18D8A403D014EC1EF000D059
:1026F8005E6803D033EC1EF000D00001F705D8B4B3
:10270800C0D71200680E1A6E070E176E0E0E186EDE
:1027180018C014F01A50DBEC1BF0196E1950010B9D
:10272800196E19502509196E18C013F019C014F044
:102738001A50C8EC1CF0EAEC1DF01A501A2448ECA8
:102748001BF0175048EC1BF06DEC1DF0D8801A34C4
:1027580048EC1BF0010EA5EC1AF0586E010EA5EC22
:102768001AF0576E010EA5EC1AF0566E000EA5EC85
:102778001AF0556E58507F0B586E57507F0B576E96
:1027880056507F0B566E55508009556EEAEC1DF079
:102798001A501A2448EC1BF0175048EC1BF05850FC
:1027A80048EC1BF0575048EC1BF0565048EC1BF017
:1027B800555048EC1BF0E1EC1DF0120068C017F012
:1027C800186A000E1A6E640E196ECDEC14F01750CC
:1027D8000001FD6F000E1A6E0A0E196E68C017F020
:1027E800186ACDEC14F017C03BF018C03CF0000E8E
:1027F8003E6E0A0E3D6E02EC17F03B500001FE6F74
:1028080068C03BF03C6A000E3E6E0A0E3D6E02EC5C
:1028180017F03B500001FF6F0001FD51300F000120
:10282800C86F0001FE51300F0001C96F0001FF5150
:10283800300F0001CA6F4A0E396EC80E3A6E000E8C
:102848003B6EF80E3D6E000E3C6E000E3F6E000EA5
:102858003E6E020E406E280E2BEC0CF01200680E35
:102868000101376F000E0101386F6C5056EC18F0FB
:102878000001FB51636E6A5056EC18F00001FB51E1
:10288800606E695056EC18F00001FB515F6E010E46
:102898005C6E675056EC18F00001FB515B6E6B5094
:1028A80056EC18F00001FB51616E6D5056EC18F0B3
:1028B8000001FB516E6EEAEC1DF00101375137251E
:1028C80048EC1BF00101385148EC1BF0635048EC10
:1028D8001BF0605048EC1BF05F5048EC1BF05C505C
:1028E80048EC1BF05B5048EC1BF0615048EC1BF0C7
:1028F8006E5048EC1BF0E1EC1DF0120013AE17D03F
:1029080011C017F012C018F013C019F0171E181EC6
:10291800191E172A000E18221922000E1724116EEC
:10292800000E1820126E800E1920136E00D016AEFD
:1029380017D014C017F015C018F016C019F0171EDC
:10294800181E191E172A000E18221922000E172405
:10295800146E000E1820156E800E1920166E00D009
:10296800000E111A000E121A800E131A000E141AF5
:10297800000E151A800E161A1450115C15501258B4
:1029880016501358D8B002D0D89002D0D88000D0B2
:102998001200000E1C6E1AAE07D0196C1A1ED8B0A1
:1029A8001A2A010E1C6E00D018AE07D0176C181E1C
:1029B800D8B0182A010E1C1A00D0000E1E6E000E88
:1029C8001D6E19501A10D8B421D0010E1B6E05D0F7
:1029D800D89019361A361B2A00D01ABE02D0F8D75A
:1029E80000D0D8901D361E361950175C1A5018584A
:1029F800D8A006D01950175E1A50185A1D8000D05A
:102A0800D8901A3219321B2EECD700D01C50D8B4EB
:102A180005D01D6C1E1ED8B01E2A00D01DC017F090
:102A28001EC018F000D01200010E0001F86F6FC030
:102A380068F04AEC0FF0E2EC13F03BD0010E010114
:102A48003B6F000E01013C6FAAEC15F001013B1928
:102A58003C11D8A42ED0000E0001F36F000EF26FC7
:102A6800040E5E6423D0090E5E6020D02CEC1EF0AC
:102A7800050E5E18D8A403D08CEC1DF000D0060E0D
:102A88005E18D8A403D096EC1DF000D0070E5E188F
:102A9800D8A403D082EC1DF000D0080E5E18D8A48C
:102AA80003D00CEC1EF000D05E6803D033EC1EF0AF
:102AB80000D00001F805D8B4C1D7120030D0695051
:102AC800D8A403D0170E696E3ED069063CD06A5070
:102AD800D8A403D03B0E6A6E36D06A0634D06C5048
:102AE800D8A403D03B0E6C6E2ED06C062CD0020EF0
:102AF8006B6003D00C0E6B6E26D06B0624D0020ED2
:102B0800676003D01E0E676E1ED067061CD06D501E
:102B1800D8A403D0630E6D6E16D06D0614D0535032
:102B2800000AD8B4CCD7010AD8B4D1D7030AD8B48C
:102B3800D6D7010AD8B4DBD7070AD8B4E0D7010A38
:102B4800D8B4E5D700D005EC0AF012000001F20570
:102B58000001F311D8A441D0000E0001F36F000E5C
:102B6800F26FF288F19C5E684F0E1D6EFF0E1E6EAE
:102B780050C01FF0206ADEEC04F0000E3B6E000E21
:102B88003A6E3BBE08D03B501BE1150E3A5CD8B0FC
:102B980017D001D015D01F0E3A24D96E010E3B2054
:102BA800DA6E5050DE18D8A407D03AC05EF0000E96
:102BB8003B6E150E3A6E00D03A4A3B2AE2D700D057
:102BC8005E28D8A408D0C00E1D6EFE0E1E6EDEEC68
:102BD80004F0000E02D0010E00D012000600EACF69
:102BE80006F0E1CF07F0E2CF08F0D9CF09F0DACF4D
:102BF8000AF0F3CF0BF0F4CF0CF0F6CF0DF0F7CFCF
:102C08000EF0F8CF0FF0F5CF10F09EA003D04EECE9
:102C18001EF000D0F2A203D0C7EC0AF000D0F0A05A
:102C280003D068EC1EF000D0F0A203D079EC1EF0BF
:102C380000D010C0F5FF0FC0F8FF0EC0F7FF0DC0A1
:102C4800F6FF0CC0F4FF0BC0F3FF0AC0DAFF09C09F
:102C5800D9FF08C0E2FF07C0E1FF06C0EAFF05C0D0
:102C6800E9FF04C0FBFF03C0FAFF1100226E800ECB
:102C780022603FD09F0E186401D03BD0FF0E1C6E1F
:102C8800FF0E1D6E195018C01EF01F6A1E26000E7A
:102C98001F221C501E261D501F221FBE0BD01F5066
:102CA80004E1A00E1E5CD8A005D018500008A00FA3
:102CB800196E00D01B50206E1AC021F018C014F0F5
:102CC80022C015F0185019241C6E1C04166E2250D0
:102CD800E8EC19F08386839807D02050A0EC1DF00B
:102CE8002150A0EC1DF000D019061928D8A4F5D75A
:102CF800838812002AD0692A170E69643AD0000E18
:102D0800696E37D06A2A3B0E6A6433D0000E6A6E49
:102D180030D06C2A3B0E6C642CD0000E6C6E29D01F
:102D28006B2A0C0E6B6425D0010E6B6E22D0672ABD
:102D38001E0E67641ED0010E676E1BD06D2A620ED0
:102D48006D6417D0000E6D6E14D05350000AD8B4BD
:102D5800D2D7010AD8B4D6D7030AD8B4DAD7010A29
:102D6800D8B4DED7070AD8B4E2D7010AD8B4E6D770
:102D780000D005EC0AF0120088EC18F05BC055F0A2
:102D8800680E0101376F070E0101386F645056EC69
:102D980018F00001FB51566E655056EC18F0000112
:102DA800FB51576E665056EC18F00001FB51586EF7
:102DB80058507F0B586E57507F0B576E56507F0BED
:102DC800566E55508009556EEAEC1DF001013751D9
:102DD800372548EC1BF00101385148EC1BF05850DE
:102DE80048EC1BF0575048EC1BF0565048EC1BF0D1
:102DF800555048EC1BF0E1EC1DF01200000E406E3F
:102E08003CAE07D03B6C3C1ED8B03C2A010E406E4D
:102E180000D03EAE05D03D6C3E1ED8B03E2A00D054
:102E28003D503E10D8B41DD0010E3F6E05D0D8904D
:102E38003D363E363F2A00D03EBE02D0F8D700D0FD
:102E48003D503B5C3E503C58D8A005D03D503B5EC1
:102E58003E503C5A00D0D8903E323D323F2EF0D7FB
:102E680000D04050D8B405D03B6C3C1ED8B03C2AAA
:102E780000D03BC03BF03CC03CF000D0120000EE5C
:102E8800E3F0180EEE6AE806FDE100EE41F02E0EC2
:102E9800EE6AE806FDE1820EF66E370EF76E000E5A
:102EA800F86E01EE00F010EE34F00900F5CFEEFFF9
:102EB800E550E150FAE1740EF66E310EF76E000E31
:102EC800F86E00EE80F010EE63F00900F5CFEEFF2B
:102ED800E550E150FAE1020EF66E3D0EF76E000E77
:102EE800F86E0900F5CF6FF0000EF86E00018BEF59
:102EF80006F0116E1150D8A402D0819804D01104A4
:102F0800D8A403D08188819A06D0020E1118D8A4BB
:102F180004D0819807D0819C24D0030E1118D8A41E
:102F280003D08188818AF7D7040E1118D8A402D05B
:102F3800819805D0050E1118D8A403D08188819AEC
:102F480006D0060E1118D8A404D0819807D0818C19
:102F580008D0070E1118D8A404D08188818AF7D721
:102F680000D01200136E000EAC6E000EAB6E13A0F4
:102F780002D0AC8800D013A203D0AC8CAB8C00D0AC
:102F880013A402D0AC8E00D013A602D0AB8802D016
:102F9800AB8A00D013B8AC849E9813AA02D0AB8633
:102FA80000D013AC02D09D8A01D09D9A9E9A13AE90
:102FB80002D09D8801D09D9811C0AFFF1250B06E0D
:102FC800AC8AAB8E949C948EACB8ACBE02D0948C78
:102FD80000D0120011501210D8A402D0849010D042
:102FE80012BE10D0125003E11104D8A00BD012BEAB
:102FF80006D0080E115C070E1258D8B003D0848092
:1030080084921DD012BE10D0080E115C070E125803
:10301800D8A00AD012BE06D08C0E115C0A0E125827
:10302800D8B002D0848009D012BE09D08C0E115CB1
:103038000A0E1258D8A003D08490848200D01200BF
:1030480091EC1CF011C0FEF012C0FFF0FEC011F0B0
:10305800FFC012F0000E146E050E136E7DEC1CF00E
:1030680011C019F012C01AF067EC1BF019C02CF04F
:103078001AC02DF01BC02EF0000E2F6E800E306E81
:10308800440E316EAFEC10F02CC0FBF02DC0FCF0FC
:103098002EC0FDF0FBC03BF0FCC03CF0FDC03DF095
:1030A80000D012000101366F36C117F0186A000E01
:1030B8001A6E0A0E196ECDEC14F017C0FDF018C088
:1030C800FEF00001FD3BFE3BF00EFE17FD510F0B1D
:1030D800FE13F00EFD1736C13BF03C6A000E3E6E43
:1030E8000A0E3D6E02EC17F03B500001FD25010170
:1030F800346F3C500001FE210101356F34C1FBF0F3
:1031080035C1FCF000D01200680E156E000E146E6A
:10311800EAEC1DF01550152448EC1BF0145048EC4F
:103128001BF06DEC1DF0D880153448EC1BF0010E37
:10313800A5EC1AF0636E010EA5EC1AF0606E010E94
:10314800A5EC1AF05F6E010EA5EC1AF05C6E010E8C
:10315800A5EC1AF05B6E010EA5EC1AF0616E000E7C
:10316800A5EC1AF06E6EE1EC1DF01200FF01303094
:103178003A30303A30300030302F30302F30300095
:1031880030303A30303A30300030312F30312F3053
:10319800300030303A30303A30300030303A303069
:1031A8003A303000302E3030560030373546003057
:1031B8003030300030373546004F4646003030302A
:1031C800004F4646002B3235002B373700300000C1
:1031D800000E166E000E156E13501410D8B421D0C0
:1031E800010E176E05D0D89013361436172A00D062
:1031F80014BE02D0F8D700D0D89015361636135022
:10320800115C14501258D8A006D01350115E1450F7
:10321800125A158000D0D89014321332172EECD7DA
:1032280000D015C011F016C012F0120054EC1EF0B8
:10323800AAEC1DF041EC1EF0700ED36E110E926ECA
:10324800070E936E010E946E000E956E000E966E2C
:10325800000E846E000E4E6EF19E000EB26E030ECE
:10326800B16EA00E116E860E126E010E136E000E58
:10327800146E59EC1EF007EC1DF0EAEC1AF04B0E38
:103288006F6E1200680E1F6E0E0E1B6E0F0E1C6EF8
:103298001BC014F01F50DBEC1BF01D6E1D50010904
:1032A8001D6E1BC013F01DC014F01F50C8EC1CF09D
:1032B8001CC014F01F50DBEC1BF01E6E1E50FE0BE2
:1032C8001E6E1CC013F01EC014F01F50C8EC1CF07A
:1032D80086EC13F01200680E1F6E0E0E1B6E0F0E9A
:1032E8001C6E1BC014F01F50DBEC1BF01D6E1D5034
:1032F800FE0B1D6E1BC013F01DC014F01F50C8EC50
:103308001CF01CC014F01F50DBEC1BF01E6E1E508E
:10331800FE0B1E6E1CC013F01EC014F01F50C8EC2C
:103328001CF086EC13F0120017C011F018C012F050
:10333800000E146E7D0E136E7DEC1CF011C01BF098
:1033480012C01CF01BC019F01CC01AF0191E1A1E5E
:10335800194A1A2AFF0E19241B6EFF0E1A201C6E1A
:10336800030ED56E1BC0D6FF1C50D76EF294D58EB7
:1033780000D0F2A4FED7D59E120018D06450D8A46D
:1033880003D0170E646E1DD064061BD06550D8A4F8
:1033980003D03B0E656E15D0650613D06650D8A4D1
:1033A80003D03B0E666E0DD066060BD05250000A55
:1033B800D8B4E4D7010AD8B4E9D7030AD8B4EED709
:1033C80000D020EC11F01200176E2A0E24EC1EF02B
:1033D800000E1CEC1EF017505A241CEC1EF0000EB8
:1033E8001CEC1EF015505A241CEC1EF02B0E24EC7D
:1033F8001EF0000E1CEC1EF0145062241CEC1EF093
:10340800000E1CEC1EF0165062241CEC1EF02C0E54
:1034180024EC1EF01200680E156E070E146EEAEC0E
:103428001DF01550152448EC1BF0145048EC1BF007
:103438006DEC1DF0D880153448EC1BF0010EA5EC9E
:103448001AF0586E010EA5EC1AF0576E010EA5EC95
:103458001AF0566E000EA5EC1AF0556EE1EC1DF050
:1034680012001A501B10D8B41DD0010E1C6E05D0C6
:10347800D8901A361B361C2A00D01BBE02D0F8D7AB
:1034880000D01A50185C1B501958D8A005D01A50F3
:10349800185E1B50195A00D0D8901B321A321C2EB5
:1034A800F0D700D018C018F019C019F0120016D0C3
:1034B800642A180E6418D8A41CD0000E646E19D0A3
:1034C800652A3B0E656415D0000E656E12D0662A1B
:1034D8003B0E66640ED0000E666E0BD05250000A8A
:1034E800D8B4E6D7010AD8B4EBD7030AD8B4EFD7D3
:1034F80000D020EC11F012002B6E2BC02CF02D6A9E
:103508000ED023C018F025C019F026C01AF027C025
:103518001BF02C503AEC16F02C4A2D2A00D02450DF
:103528002BC028F0296A2826000E292228502C5C56
:103538002D50800A2A6E2950800A2A58D8A0E1D72F
:103548001200116E75EC1EF0000E126E070E12645A
:1035580001D00FD048EC1EF083AE03D0D8801336CC
:1035680004D013501324136E00D071EC1EF0122AED
:10357800EDD71150D8B403D0F3EC1DF003D05EECB6
:103588001EF000D0135000D01200030EB16EB2CF5F
:1035980017F0186A000E1A6E020E196ECDEC14F0B0
:1035A80017C021F018C022F0000EB26E21C011F031
:1035B80022C012F0000E146E3C0E136E7DEC1CF04F
:1035C80011C01FF012C020F000D01200F292F0904B
:1035D800F092F288F086F088F19CF19AF198000E4A
:1035E800CF6E000ECE6E9E909D80F28CF28E000EF5
:1035F8000001F36F000EF26F000E0001E36F000E82
:10360800E46F000EE56F000EE66F12002A0E24EC40
:103618001EF0000E1CEC1EF0000E1CEC1EF0000E3E
:103628001CEC1EF07F0E1CEC1EF02B0E24EC1EF082
:10363800000E1CEC1EF0000E1CEC1EF0000E1CEC24
:103648001EF09F0E1CEC1EF0120011C015F012C0E7
:1036580016F003D0154A162A00D015C0D9FF16C097
:10366800DAFFDF50D8A4F6D711C013F012C014F057
:10367800131E141E134A142A15501324116E1650C3
:103688001420126E00D01200116E000E126E070E7A
:10369800126401D011D011AE03D075EC1EF003D026
:1036A80063EC1EF000D048EC1EF071EC1EF01150D7
:1036B8001124116E122AEBD775EC1EF048EC1EF09F
:1036C80071EC1EF01200000E1C6E1AAE07D0196CB9
:1036D8001A1ED8B01A2A010E1C6E00D019C011F09B
:1036E8001AC012F0136A8E0E146E1CC015F063EC2B
:1036F80012F011C019F012C01AF013C01BF000D05C
:1037080012001150135C1450800A156E1250800A72
:103718001558D8B002D0000E06D011500008132456
:10372800156ED89015345D6E640E5D6403D0640E1A
:103738005D6E00D05DC011F0126A00D01200480E14
:10374800186EAA0E166EEAEC1DF01850182448ECF4
:103758001BF0165048EC1BF06DEC1DF0D8801834A7
:1037680048EC1BF0000EA5EC1AF0176EE1EC1DF00A
:1037780017C014F0156A00D01200204543453333B2
:1037880030314C20462732312046696E616C00008A
:10379800000000000000000000A262E22202C2E075
:1037A800A8906898B030187A10385A424A52166E63
:1037B800EAEC1DF01650162448EC1BF0145048ECA7
:1037C8001BF06DEC1DF0D880163448EC1BF0000E91
:1037D800A5EC1AF0156EE1EC1DF0155000D01200A2
:1037E80011C015F012C016F005D0154A162A134A52
:1037F800142A00D013C0F6FF14C0F7FF15C0D9FF74
:1038080016C0DAFF0800F5CFDFFFDF50D8A4EDD7E8
:10381800120045C011F046C012F06FC013F0146AD0
:1038280085EC1BF011505D6E5D50C6EC12F04D50EA
:10383800D8A403D054EC1EF003D0FCEC1DF000D04B
:1038480012001B6E800E1B6013D09F0E186401D0EF
:103858000FD018C014F01B28156E1828166E1B50B0
:10386800E8EC19F01A501CEC1EF019501CEC1EF074
:103878001200000E0001EB6F000EEA6F000E00014F
:10388800ED6F000EEC6F000E426E000E416E6DEC97
:103898001EF0000E7DEC17F0000E4F6E1200156E34
:1038A80015C011F00F0E111615C012F0123A0F0EB6
:1038B800121612500A0D1150F324136E000EF42044
:1038C800146E135000D0120083888396800EC76E42
:1038D800300EC66EB8EC0CF00AEC1BF0C3EC0FF01F
:1038E800360E24EC1EF0C00E1CEC1EF0010E546EB9
:1038F800120011501302F3CF15F0F4CF16F0115047
:103908001402F350162612501302F350162615C04F
:1039180011F016C012F000D01200C28200D0C2B25C
:10392800FED7C450146E136AC3501324156E000ECC
:103938001420166E15C011F016C012F000D0120037
:103948001C6E1C50116E126A136A8E0E146E000ED5
:10395800156E63EC12F011C019F012C01AF013C002
:103968001BF000D01200136E000E126E3A0E136098
:1039780006D02F0E136403D0010E126E00D012C0B1
:1039880011F0113000D01200156EEAEC1DF0155040
:10399800152448EC1BF0135048EC1BF0145048EC6D
:1039A8001BF0E1EC1DF01200000E126E000E116EFD
:1039B800112805E11228D8B406D001D004D0114A44
:1039C800122AF6D7FCD71200156EEAEC1DF0155036
:1039D800152448EC1BF0135048EC1BF0145048EC2D
:1039E8001BF0E1EC1DF01200000E126E000E116EBD
:1039F80011287F0E1258D8B005D001D003D0114A33
:103A0800122AF6D71200480E166EAC0E136E020E6E
:103A1800146E1650E8EC1CF0EE0E136E165024ECE3
:103A28001DF01200000E186E800E196EA00E1A6E90
:103A380024C01BF025C01CF0000E90EC11F0120001
:103A4800146EEAEC1DF01450142448EC1BF01350CB
:103A580048EC1BF0E1EC1DF012005350D8A403D041
:103A6800050E536E02D0530600D0535054EC08F0A4
:103A78001200532A060E5318D8A403D0000E536E12
:103A880000D0535077EC07F012005250D8A403D05E
:103A9800020E526E02D0520600D0525054EC08F07A
:103AA8001200522A030E5218D8A403D0000E526EE8
:103AB80000D0525077EC07F01200C0EC16F00FEC73
:103AC8001AF088EC18F01EEC03F0000E0001F76FF6
:103AD800120071EC1EF075EC1EF048EC1EF063EC61
:103AE8001EF071EC1EF0120033EC14F088EC18F0A4
:103AF8001EEC03F0000E0001F96F1200682A6E0E2A
:103B0800686403D06E0E686E00D0E2EC13F0120009
:103B180068C06FF088EC18F01EEC03F0000E00018E
:103B2800F86F12006806320E686003D0320E686EB5
:103B380000D0E2EC13F01200126E9E96C9CF11F07D
:103B480012C0C9FF00D0C7A0FED71200000E126E27
:103B5800190E116E3C0EB6EC17F0700ED36E1200F3
:103B68004D50D8A402D0010E01D0000E4D6E00D0E9
:103B78001200F90ECB6E050ECA6E4A0EBB6E3C0ED5
:103B8800BA6E1200839A000E186E640E176E98ECC7
:103B980019F0838A1200F90ECB6E050ECA6E4A0E12
:103BA800BB6E3C0EBA6E1200F90ECB6E070ECA6ED3
:103BB8004A0EBB6E3C0EBA6E120071EC1EF063EC3E
:103BC8001EF048EC1EF075EC1EF0120075EC1EF0AD
:103BD80048EC1EF063EC1EF071EC1EF0120063EC72
:103BE8001EF048EC1EF071EC1EF075EC1EF0120091
:103BF800010E4D6E5D50C6EC12F0808A848412006E
:103C080088EC18F01EEC03F0000E0001F96F1200AA
:103C180088EC18F01EEC03F0000E0001F86F12009B
:103C280088EC18F01EEC03F0000E0001F76F12008C
:103C3800136E839883861350A0EC1DF083881200BE
:103C4800136E839883961350A0EC1DF0838812009E
:103C5800CFEC1DF0D8EC1CF06DEC1EF01200D8EC87
:103C68001DF0D8EC1CF06DEC1EF01200116E00D0A7
:103C7800ACA2FED711C0ADFF1200010EC26E0E0E2F
:103C8800C16EA90EC06E1200958C060EE82EFED7E6
:103C980000D01200000E516EF19CCD909E90120043
:103CA800000E4D6E809A8494120048EC1EF075EC5C
:103CB8001EF0120048EC1EF071EC1EF01200839EFC
:103CC800959E00D000D01200F090010E0001F66F12
:103CD8001200000EBA6E81961200839C959C00D04B
:103CE8001200958E00D000D01200F092010E4F6E97
:0C3CF8001200000E516ECD9012004B0027
:10FC9C0000000000000000005F00000007000700EB
:10FCAC00147F147F14242A7F2A12231308646236CB
:10FCBC00495620500008070300001C224100004157
:10FCCC00221C002A1C7F1C2A08083E080800807091
:10FCDC0030000808080808000060600020100804C4
:10FCEC00023E5149453E00427F4000724949494617
:10FCFC002141494D331814127F1027454545393C95
:10FD0C004A49493141211109073649494936464981
:10FD1C0049291E00001400000040340000000814A3
:10FD2C00224114141414140041221408020159091C
:10FD3C00063E415D594E7C1211127C7F4949493671
:10FD4C003E414141227F4141413E7F494949417FEA
:10FD5C00090909013E414151737F0808087F0041A0
:10FD6C007F41002040413F017F081422417F4040E9
:10FD7C0040407F021C027F7F0408107F3E414141BE
:10FD8C003E7F090909063E4151215E7F091929462A
:10FD9C00264949493203017F01033F4040403F1F40
:10FDAC002040201F3F4038403F6314081463030475
:10FDBC007804036159494D43007F414141020408D5
:10FDCC001020004141417F040201020440404040A8
:10FDDC0040000307080020545478407F28444438DE
:10FDEC003844444428384444287F38545454180028
:10FDFC00087E090218A4A49C787F080404780044A7
:10FE0C007D40002040403D007F1028440000417F91
:10FE1C0040007C047804787C08040478384444441A
:10FE2C0038FC1824241818242418FC7C0804040812
:10FE3C00485454542404043F44243C4040207C1C2B
:10FE4C002040201C3C4030403C44281028444C901E
:10FE5C0090907C4464544C44000836410000007778
:10FE6C0000000041360800020102040201000A00F1
:10FE7C006400E80310270100100000010010253079
:10FE8C0032783A253032783A2530327820253032A3
:10FE9C00782F253032782F2530327800616C6172E2
:10FEAC006D203D20256420486561746572203D20DD
:10FEBC002564200043616E6E6F742066696E642049
:10FECC00627574746F6E200D0A0020454345333300
:10FEDC0030314C20462732312046696E616C00006F
:10FEEC00454345333330314C20463B323120466953
:10FEFC006E616C00002054656D70203D20256420DF
:10FF0C0043203D20256420462000454345333330B3
:10FF1C00314C20462732312046696E616C005250BC
:10FF2C004D203D20256420206463203D2025640D58
:10FF3C000A00303132333435363738396162636414
:10FF4C006566004E65635F636F6465313A25780DB5
:10FF5C000A200053657420486561746572205465ED
:10FF6C006D700054656D70657261747572653A00E0
:10FF7C00485452205365742054656D700054696D5B
:10FF8C0065205365747570000020204865617465A8
:10FF9C007200200025783A25783A25780D0A004120
:10FFAC006C61726D2054696D650020205365747509
:10FFBC0070002000416C61726D205357002020416D
:10FFCC006C61726D0020205365747570004854523A
:10FFDC00205357004461746500566F6C74004F4E8B
:10FFEC0020004F46460052504D00432F0044430022
:04FFFC00524D000062
:020000040020DA
:08000000FFFFFFFFFFFFFFFF00
:020000040030CA
:0E000000FF08191EFF8281FF0FC00FE00F40A6
:00000001FF
